:100000006E0304000000000000000000000000007B
:1000100000000000000000000000000000000000E0
:100020000000000000000000BA0300000000000013
:1000300000000000000000000000000000000000C0
:1000400000000000000000000000000000000000B0
:1000500000000000000000000000000000000000A0
:1000600000000000000000002E040000000000005E
:100070000000000000000000000000000000000080
:100080000000000000000000000000000000000070
:100090000000000000000000000000000000000060
:1000A0000000000000000000000000000000000050
:1000B0000000000000000000000000000000000040
:1000C0000000000000000000000000000000000030
:1000D0000000000000000000000000000000000020
:1000E0000000000000000000000000000000000010
:1000F0000000000000000000000000000000000000
:1001000000000000000000000000000000000000EF
:10011000FE030000000000000000000000000000DE
:1001200000000000000000000000000000000000CF
:1001300000000000000000000000000000000000BF
:1001400000000000000000000000000000000000AF
:10015000000000000000000000000000000000009F
:1006DC002F812000F0FF200020A0B7000000200098
:1006EC0034A0B700400020004420B700EA04020008
:1006FC0000000000F4040200000000008A1F7800D3
:10070C004387A80043A7A80043C7A900BEFF070062
:10071C000AC3B300E0FF070036FF0700C222A9009E
:10072C00CBA2A9004180200010C0B3008048780003
:10073C00E421EF0020802000104078006104E100EB
:10074C00060036000882AE000400370036FF0700B2
:10075C00218020000020EF0080487800F5FF370052
:08076C004F057800FFFF370084
:10061400C022A900C002A800C942A800C962A8005B
:10062400C982A800C8A2A800C8C2A800C8E2A8003D
:10063400C9A2A9008200A9009400A8008400A9000E
:10064400E101A800E121A800E141A800E041A900DE
:10065400E0E1A800E301A800E2E1A800F0FF2F0018
:10066400E6A1B700F00F2000E4A1B700A0B020007D
:100674009CA6B700C00020009EA6B7009B40A8001F
:10068400C1E1A800C821EF00C881A800F00420003F
:10069400C4A1B70000052000D6A1B70000000600E1
:1006A400C902A800C922A80007E2A8000742A900BD
:1006B4000702A8000722A90006C2A8000A80FB00BE
:1006C4000AA2B70008E2A90008C2A9009600A8007F
:0806D4008600A90000000600E9
:100400000000FA00F0FF2F0040408800000E20009E
:1004100020A3B7002143A9002223EF00F0F321001D
:1004200024A3B7003023EF0021E3A8000080FA00E6
:0404300000000600C2
:100434000620EF00208020001080FB00E100500027
:100444000300FB000100E1002B003D00A080200020
:100454009080FB000300FB00008140001D0037007A
:100464000300FB00E1004000A080200001004000E8
:10047400104078000000AE00CBA2A9000000AF003D
:10048400CBA2A8001A0037000300FB00E1004000E3
:10049400A080200001004000104078000000AE0061
:1004A400C222A9000000AF00C222A8001000370039
:1004B4000300FB00E1004000A08020000100400098
:1004C400104078000080FB00D6A1B7000800370078
:1004D400070037006010E100E1FF32006110E10025
:1004E400E9FF32006210E100F1FF3200F8FF37004B
:0C04F4000660EC00CFFF3700000006009F
:1009D4000A8020000B002000080009000B1D78008D
:0409E4000000060009
:1009E80001802000204E280002000900B01878007D
:0809F800B05878000000060071
:1007FC003400F8003600F800801F7800200020003C
:10080C000C000900B01F7800CBA2AA00E161AE0079
:10081C000400370011C0B3000080200010C8400055
:10082C000300370011C0B3000080200010C8100076
:10083C008B40A900A00120000C0009004F1078008B
:10084C004F0078003600F9003400F9000040060033
:10085C003400F8003600F800801F780020002000DB
:10086C000C000900B01F78008A1F78008600AE00CB
:10087C003C0037000862AE003800370041108000A1
:10088C0070C2B30080C060002A0037006180200075
:10089C000020EF00804878005180200000C2BF008B
:1008AC0080487800608020001045780011FF070018
:1008BC006080200010407800E14040006080200003
:1008CC000148780025003700218020000020EF002F
:1008DC00804878005180200000C2BF00804878001A
:1008EC001E00370020802000104078006804E100D2
:1008FC000C003100208020009080FB00A0802000A4
:10090C008100400000C2BF00804878002080200099
:10091C0010407800E1404000208020000148780021
:10092C00030037005180200000C2BF0080487800CF
:10093C000A003700660CE100D4FF320040C2B3005D
:10094C00000CE100D7FF3200620CE100DEFF320048
:10095C0020C2B300000CE100E2FF32000782A800C5
:10096C008600A90008E2AF000500370008C2AF00FE
:10097C00030037000942AF000100370006003700C2
:10098C000942A90008E2A90008C2A9005180200070
:10099C0000C2BF00804878004F057800A0012000FD
:1009AC000C0009004F1078004F0078003600F90059
:0809BC003400F90000400600C0
:10050000A08020009080FB000A80FB0080814000DA
:100510002B003700E481BF0002A2B700390037008A
:10052000E481BF004800DE0002A2B70035003700BA
:10053000008020001000FB0002A2B700310037004D
:100540000800A900CAA2AE000800A800CAC2AE00F6
:100550004200A800CAC2AF004200A9000060EF003C
:100560004200AF000060EC000080FB004101DD00B4
:100570000060EF000800AF000060EC008080FB002E
:1005800020202000028870000020EF00E161AF0011
:100590000020EC0002A2B7001A0037001000200073
:1005A00002A2B70017003700408020001080FB0037
:1005B00002A2B700130037000222EF00110037003B
:1005C0006018E100D3FF32006118E100D4FF32006F
:1005D0006218E100D6FF32006318E100D8FF320054
:1005E0007018E100E8FF3200000C20000018E10064
:1005F000EAFF3200100C20000018E100EAFF320090
:10060000EDFF3700118020003080200090487800F6
:0406100000000600E0
:100774003400F8003600F800801F780020002000C4
:100784000C000900B01F78008400AE00130037008D
:10079400CAA2AF000500370001052000601D20003B
:1007A4001008E1000100310008003700CAC2AF00A0
:1007B4000500370001052000601D20001008E1003D
:1007C400010036000100370003003700CBA2A80067
:1007D40000052000D6A1B7008400A900A0012000D4
:1007E4000C0009004F1078004F0078003600F90023
:0807F4003400F900004006008A
:0409C400003C0000F3
:0409C800003C0000EF
:0409CC000000000027
:0409D0000000000023
:0200000401F009
:200000000F000000FFFF00000700000083000000A50000005F000000F7000000C30000008B
:00000001FF
